:1000000012C021C020C01FC01EC01DC01CC01BC00C
:100010001AC0EEC018C017C016C015C014C013C057
:1000200012C011C010C011241FBECFE5D4E0DEBF46
:10003000CDBF10E0A0E6B0E001C01D92A536B1072B
:10004000E1F7D2D142C2DCCF22EA2FBD2CE02EBD97
:1000500020EA2FBD21E12EBD20E43CE937BD26BDBD
:100060001DBC1CBC9BBD8ABD79BD68BD0895AC019B
:100070008AB59BB56817790718F47BBD6ABD0895EA
:100080008AB59BB58417950710F45BBD4ABD0895EA
:10009000AC0188B599B56817790718F479BD68BDC2
:1000A000089588B599B58417950710F459BD48BDD2
:1000B000089525B3207C25BB28B32F7328BB35B307
:1000C000282F2F73232B25BB28B390E0807C9070C2
:1000D0009595879595958795282B28BB0895C59A62
:1000E000C49A88E893E128EC30E0F9013197F1F700
:1000F0000197D9F718BA08958BE190E09BBD8ABDAE
:100100008DE290E099BD88BD40E050E068EC70E081
:1001100088B599B5049799BD88BD8AB59BB50196F8
:100120009BBD8ABD20E030E088B599B5019699BDA8
:1001300088BD8CE49DE1FB013197F1F70197D9F778
:100140002F5F3F4F2430310579F74F5F5F4F4430C9
:100150005105F1F60895AC0120E137E208C08AB5F7
:100160009BB50A969BBD8ABDC9010197F1F78AB577
:100170009BB58617970798F309C08AB59BB50A9770
:100180009BBD8ABDC9010197F1F702C020E137E2AA
:100190008AB59BB54817590780F30895AC0120E153
:1001A00037E208C088B599B50A9699BD88BDC901DE
:1001B0000197F1F788B599B58617970798F309C0A5
:1001C00088B599B50A9799BD88BDC9010197F1F71E
:1001D00002C020E137E288B599B54817590780F386
:1001E000089584E083BF12BE81E089BF78940895AA
:1001F0001F920F920FB60F9211242F938F939F93FC
:1002000080916000909161000196909361008093CD
:1002100060008091600090916100885E934029F4B5
:10022000C39810926100109260009F918F912F915E
:100230000F900FBE0F901F901895E199FECF9FBBB6
:100240008EBBE09A1FBA1EBA8DB308950F931F9309
:10025000CF93DF93EC01062F10E0CE01EEDF0817FD
:1002600041F0DFBBCEBB0DBBE29AE19A1F5F1A30B3
:10027000A1F7812FDF91CF911F910F910895809168
:100280006300909164006BB5E1DF80916300909111
:1002900064006AB50196DADF809163009091640092
:1002A000029660E0D3DF809163009091640069B5AD
:1002B0000396CCDF809163009091640068B504964A
:1002C000C5DF8091630090916400809690936400F4
:1002D00080936300089580E39CE09BBD8ABD8EE916
:1002E00091E199BD88BD80EA9FE028EC30E0F901FA
:1002F0003197F1F70197D9F780E39CE09BBD8ABD68
:1003000084E293E199BD88BD80EA9FE028EC30E06B
:10031000F9013197F1F70197D9F788EA9CE09BBD85
:100320008ABD84E392E199BD88BD80EA9FE028EC14
:1003300030E0F9013197F1F70197D9F788EA9CE0AD
:100340009BBD8ABD8CEA92E199BD88BD80EA9FE0A1
:1003500028EC30E0F9013197F1F70197D9F78EE3F6
:100360009DE09BBD8ABD84E392E199BD88BD80EA92
:100370009FE028EC30E0F9013197F1F70197D9F7C8
:100380008EE39DE09BBD8ABD8CEA92E199BD88BD5C
:1003900080EA9FE028EC30E0F9013197F1F701970E
:1003A000D9F786EB9DE09BBD8ABD8EE991E199BDB1
:1003B00088BD80EA9FE028EC30E0F9013197F1F741
:1003C0000197D9F784ED9DE09BBD8ABD82E493E15E
:1003D00099BD88BD80EA9FE028EC30E0F9013197B3
:1003E000F1F70197D9F70895AF92BF92CF92DF92BC
:1003F000EF92FF920F931F93CF93DF938FEF87BB03
:100400008FE384BB11BA88EB9BE06CEC70E11CDEDF
:1004100060E6A62E6AEEB62E58EBC52E5BE0D52E12
:1004200048EDE42E4EE0F42E0CEC10E1C8E8D3E1E8
:1004300001C051DF859BFDCF869BFECF879BFECF02
:10044000849902C0C39A01C0C398809904C088B53A
:1004500099B54E9605C0819914C088B599B54E9747
:1004600099BD88BD88B599B58958934118F0D9BD13
:10047000C8BD07C088B599B58C5C904110F419BD12
:1004800008BD829904C08AB59BB54E9605C0839974
:1004900014C08AB59BB54E979BBD8ABD8AB59BB5E6
:1004A000895D9E4018F0FBBCEABC07C08AB59BB5CD
:1004B000885B9B4010F4DBBCCABCC5010197F1F717
:0E04C000C398C5010197F1F7B5CFF894FFCFAF
:00000001FF
